:020000040800F2
:1000000070120020AD01000817250008651D0008CA
:1000100015250008E90800088928000800000000EC
:100020000000000000000000000000000926000899
:100030009D09000800000000192500080B26000893
:10004000C7010008C7010008C7010008C701000870
:10005000C7010008C7010008C7010008C701000860
:10006000C7010008C7010008C7010008C701000850
:10007000C7010008C7010008C7010008C701000840
:10008000C7010008C7010008C70100080000000000
:10009000000000000000000000000000C701000890
:1000A000C7010008C7010008C7010008C701000810
:1000B000C7010008C7010008C7010008C701000800
:1000C000C7010008C7010008C7010008C7010008F0
:1000D000C7010008C7010008C701000800000000B0
:1000E000C7010008C7010008C701000800000000A0
:1000F000000000000000000000000000C701000830
:1001000000000000C7010008C7010008C70100087F
:1001100000000000000000000000000000000000DF
:10012000ED080008C7010008C7010008C701000862
:10013000C7010008000000000000000000000000EF
:10014000000000000000000000000000C7010008DF
:10015000C7010008C7010008C7010008C70100085F
:10016000C7010008C70100080000000000000000EF
:10017000000000000000000000000000000000007F
:1001800000000000C701000800000000000000009F
:10019000C7010008C7010008DFF80CD000F048FADA
:1001A00000480047C131000870120020064880470F
:1001B00006480047FEE7FEE7FEE7FEE7FEE7FEE74C
:1001C000FEE7FEE7FEE7FEE791260008990100083A
:1001D0002DE9F05F0546002092469B46884606467C
:1001E000814640241BE0284641464746224600F00F
:1001F00057F853465A46C01A914110D31146184633
:10020000224600F03EF82D1A67EB01084F462246C1
:100210000120002100F035F817EB00094E41201EA7
:10022000A4F10104DFDC484631462A464346BDE8D6
:10023000F09FD2B201E000F8012B491EFBD27047BB
:100240000022F6E710B513460A4604461946FFF7A2
:10025000F0FF204610BD30B50B460146002020229D
:10026000012409E021FA02F59D4205D303FA02F5C3
:10027000491B04FA02F52844151EA2F10102F1DC23
:1002800030BD202A04DB203A00FA02F1002070473A
:100290009140C2F1200320FA03F3194390407047C4
:1002A000202A04DB203A21FA02F00021704721FACB
:1002B00002F3D040C2F12002914008431946704732
:1002C0002DE9FE4F804681EA0300C00F0C460090E6
:1002D00021F0004123F00045B8EB0200A94105D20E
:1002E0004046214690461C460B46024623F00040FD
:1002F000104347D0270DC7F30A00C3F30A510290F9
:10030000401A019040286BDAC3F3130040F4801BBD
:100310000098924620B10023D2EB030A63EB0B0B4B
:1003200001985946C0F140025046FFF7AAFF064621
:100330000D4650465946019A00F08CF910EB080022
:100340006141002487EA115284EAE7731A4340D0DE
:10035000009A62B3019A012A4FEA075215DC001B8A
:1003600061EB02014FF0004202EA0752CDE9004280
:10037000001C41F5801132462B4600F08CF903B089
:10038000BDE8F08F40462146F9E7001B61EB020112
:10039000001C41F5801300185B412018A2F50017DE
:1003A00047EB030140EAD570B6196D4111E06D08C5
:1003B0004FEA360645EAC0754FEA0752001B61EB6B
:1003C0000201001C41F5801149084FEA3000001974
:1003D000514132462B4603B0BDE8F04F00F04CB916
:1003E0000098012240000023D0EB020263EBE0738F
:1003F000009821464FEAE074B8EB000061EB04017D
:10040000E9E783F000435BE781F0004158E72DE91D
:10041000FE4F81EA030404F0004421F000410094FF
:100420004FF0000B23F0004350EA01045ED052EA83
:1004300003045BD0C3F30A54C1F30A552C44A4F25D
:10044000F3340194A0FB0254C1F3130141F4801171
:10045000C3F3130343F4801301FB024400FB034E78
:10046000840A970A44EA815447EA8357A4FB076841
:1004700002958D0A05FB07854FEA932C04FB0C546B
:100480002705029D4FEA065847EA1637B5EB0805DF
:100490006EEB070C870E920E47EA811742EA831231
:1004A000A7FB0201B6EB0B0164EB00042B0D43EA42
:1004B0000C335E1844EB1C50DA465146E7FB020150
:1004C000C5F313044FEA0B3343EA14534FEA0432E3
:1004D000019C43EA0603A4F10C040294009CCDE9BC
:1004E00000B400F0D8F803B0BDE8F08F002001465A
:1004F000F9E72DE9F04D81EA030404F0004B21F007
:10050000004514464FF0000A23F0004150EA05026E
:1005100020D054EA01021DD0C5F30A570246C5F3A4
:100520001303C1F31300C1F30A5640F4801543F4DA
:100530008013A7EB0608101BD64608F2FD3873EBB4
:10054000050002D308F1010801E092185B41B8F1FF
:10055000000F03DA00200146BDE8F08D00204FF4C3
:100560008011064684460EE0171B73EB050705D382
:10057000121B63EB050306434CEA010C49084FEAE2
:10058000300092185B4150EA0107EDD152EA0300B6
:1005900012D082EA040083EA0501084305D0101B4B
:1005A000AB4106D20122002306E000224FF00043B7
:1005B00002E06FF0010253101AEB06004CEB0851F9
:1005C00010EB0A0041EB0B01BDE8F04D00F054B810
:1005D000C1F30A52C1F3130140F2FF3341F4801119
:1005E0009A4202DA00200146704740F233439A42B1
:1005F000A2F2334202DC5242FFF752BEFFF741BE85
:1006000030B5041E71F1000404DB4FF00044404299
:1006100064EB0101141E73F1000405DB1C464FF06E
:100620000043524263EB0403994208BF904230BD3D
:10063000064C074D06E0E06840F0010394E807002F
:1006400098471034AC42F6D3FFF7AAFD704100087A
:1006500090410008202A06DBCB17203A41FA02F02D
:1006600043EAE07306E041FA02F3D040C2F120020F
:10067000914008431946704710B5141E73F10004E9
:1006800008DA401C41F1000192185B411A4301D184
:1006900020F0010010BD2DE9F04D92469B4611B1AE
:1006A000B1FA81F202E0B0FA80F220329046FFF710
:1006B000E8FD04460F4640EA0A0041EA0B015346B2
:1006C0005A46084313D0114653EA010019D0C8F125
:1006D00040025046FFF7E4FD05460E465046594697
:1006E0004246FFF7CEFD084305D0012004E0204636
:1006F0003946BDE8F08D0020054346EAE0762C43FC
:1007000037430A986305E40AA0EB08000022FD0ABB
:1007100044EA47540A3002D500200146E9E70105C2
:1007200010196941DDE9084500196941BDE8F04D3E
:10073000A2E710B50146806B026C12F0500F05D095
:10074000026CD20626D500F0DFF910BD016C41F431
:100750000071016401688A6812F0405F17D1027E5F
:10076000AAB9CA6A12F4700F02D08A6852050ED470
:100770004A6822F020024A60016C21F48071016411
:10078000016CC90403D4016C41F00101016400F063
:10079000B9F910BD806BC26CBDE810400846104727
:1007A00010B5806B40210164416C41F0040141644B
:1007B00000F0AAF910BD10B5806B00F0A4F910BDCF
:1007C000464910B54A6822F440324A604A68436894
:1007D0001A434A6001684A6822F480724A600168DC
:1007E0004A68036942EA03224A6001684A6822F0C3
:1007F00040724A6001684A6883681A434A60016827
:100800008A6822F400628A6001688A68C3681A43B1
:100810008A60816A6FF07062D14201688A6822F052
:1008200070628A6001688A680CD0836A1A438A60A1
:1008300001688A6822F040528A6001688A68C36A47
:100840001A4301E022F040528A6001688A6822F06F
:1008500002028A6001688A68037E42EA43028A6073
:1008600090F82010002901684A680FD042F4006215
:100870004A6001684A6822F460424A6001684A6836
:10088000174C436A04EB43331A4301E022F400623D
:100890004A600168CA6A22F47002CA620168CA6AC0
:1008A000838B104C04EB03531A43CA6201688A68B5
:1008B00022F400728A6001688A6890F8303042EA57
:1008C00043228A6001688A6822F480628A60016833
:1008D0008A68406942EA8020886010BD0023014098
:1008E00000E0FFFF0000F0FFFEE70000014800F01D
:1008F00003BA0000F80C002001681823CAB2103AAD
:10090000B2FBF3F2054B6FF30901032A9B5CC3654D
:1009100000D9091D81650846704700005041000854
:1009200010B5014600208B698A6A4FF0C07453B13C
:10093000B3F5005F15D072B1012A0CD0022A0AD09B
:10094000032A09D104E01AB1012A06D0022A03D1F0
:10095000C96AC90100D5012010BDC96AA142FAD0F7
:1009600010BD002AF7D0012AF2D0022AF3D0032AC0
:10097000F3D010BD30B50468256825F480252560C6
:10098000046863608368402B036803D09960006843
:10099000C26030BD9A600068C16030BD704770476A
:1009A00078B50024009490F83C20012A19D0012247
:1009B00080F83C200A6807230568092A13D9EE68E5
:1009C0000A3A02EB420293409E43EE600B788A683B
:1009D0000A3B03EB43039A400368DD682A43DA606D
:1009E00010E0022078BD2E6902EB420293409E4344
:1009F0002E610B788A6803EB43039A4003681D69F4
:100A00002A431A614A681F23072A13D205686E6BAE
:100A1000521E02EB820293409E436E630A8893B299
:100A20000A79521E02EB820293400268556B2B43F7
:100A3000536327E005680D2A12D22E6BD21F02EBFA
:100A4000820293409E432E630B790A88DB1F92B289
:100A500003EB83039A4003681D6B2A431A6311E07A
:100A6000EE6A0D3A02EB820293409E43EE620B79EE
:100A70000A880D3B92B203EB83039A400368DD6A58
:100A80002A43DA621B4B0568194A9D420AD10D6858
:100A9000122D07D1556825F400055560556845F4B9
:100AA0008005556005689D421DD1134D0B68AB4212
:100AB00001D0112B17D1536823F48003536053687E
:100AC00043F4000353600968A9420CD10B490C4A56
:100AD0000968B1FBF2F101EB8101490000E0491E18
:100AE00000910029FBD180F83C40002078BD000037
:100AF00000230140002001401200001018000020D7
:100B000040420F0070477047704770B504004FF0C7
:100B1000000503D0206C002610B107E0012070BD55
:100B2000204600F01DF8666484F83C60206CC00626
:100B300010D4206C20F4885040F00200206420463D
:100B4000FFF73EFE6664206C20F0020040F00100DA
:100B5000206400E0012584F83C60284670BD000058
:100B600070B586B0064614216846FFF769FB1D493B
:100B70003068884234D11C480025016841F48071F6
:100B80000160006800F4807005901748143801680F
:100B900041F0010101600068694600F00100059024
:100BA000112000900320CDE90105104800F028FA3B
:100BB000104C0F48C4E900050015A560C4E90350B6
:100BC000800060618000A0618011C4E907052046B3
:100BD000656200F061F908B1FFF7E1FEB463A66356
:100BE00006B070BD002001404438024000000240C1
:100BF00010640240F80C0020F8B50E4600210446AF
:100C0000009190F83C00012807D0012084F83C00B6
:100C100020688368DB0702D011E00220F8BD8368FA
:100C200043F0010383602D482D4B0068B0FBF3F0C7
:100C300000EB400000E0401E00900028FBD120683F
:100C40008368DB0748D0236C40F20165AB4343F473
:100C5000807323644068400505D5206C20F4005063
:100C600040F480502064206CC00404D5606C20F0F7
:100C70000600606400E0616484F83C10A16B1A48CF
:100C8000184DC863A16B19480864A16B1848C86463
:100C900021686FF0220008602068416841F080619F
:100CA00041602068816841F4807181602168134649
:100CB00032464C31A06B00F059F96868C0062068D4
:100CC00002D00C49884207D1816811F0405F03D1FE
:100CD000816841F0804181600020F8BD180000204B
:100CE00040420F000023014033070008B707000807
:100CF000A1070008002001402DE9F84304464FF009
:100D00000009CDF8009063484FF41651A56D0068B6
:100D1000B0FBF1F72E6894F85C10082000FA01F19E
:100D200031420FD021680A6852070BD50A6822F0B9
:100D300004020A6094F85C108840A860606D40F07E
:100D40000100606594F85C104FF0010808FA01F0AA
:100D5000304208D021684969090604D5A860606D51
:100D600040F00200606594F85C1004208840304236
:100D700008D021680968890704D5A860606D40F033
:100D80000400606594F85C1010208840304218D050
:100D900021680968090714D5A8602068016849031B
:100DA00004D50068000308D5A16C07E00168C905F7
:100DB00003D4016821F008010160216C09B12046CB
:100DC000884794F85C1020208840304231D0216858
:100DD0000968C9062DD5A86094F835000528206853
:100DE000016806D0490347D5006800031DD4616C33
:100DF0001CE021F0160101602068416921F08001AA
:100E00004161206C08B9A06C20B12068016821F014
:100E10000801016094F85C103F208840A86084F8C5
:100E2000349084F83580216D1FE0E16B09B12046D4
:100E30008847606D00282BD0606DC00714D0052056
:100E400084F835002068016821F0010101600098F4
:100E5000401C0090B84203D820680068C007F6D153
:100E600084F8349084F83580E16C002910D001B00A
:100E70002046BDE8F04308470168C905D5D401689C
:100E800021F01001016084F8349084F83580CCE7BB
:100E9000BDE8F883180000202DE9F041044600F079
:100EA0007FF906465CB1002584F83450022084F8AE
:100EB00035002068016821F0010101600DE001208A
:100EC000BDE8F08100F06CF9801B052805D92020D1
:100ED0006065032084F83500F2E720680068C007E9
:100EE000F0D12268116820480140D4E90103184379
:100EF000D4E903363343184363691843A36918439D
:100F0000E3691843236A18430843616A042903D13B
:100F1000D4E90B1319430843106020684069666ADE
:100F200020F0070130460E43012704280CD1A06AA7
:100F30000643E06A40B12046FFF7F2FC20B14020B2
:100F4000606584F83570BAE7206846612046FFF78F
:100F5000D3FC94F85C203F2191408160656584F862
:100F600035700020ACE700003F8010F02DE9F04123
:100F70000446866D90F83400002501280DD001202C
:100F800084F8340094F835700020012F07D084F8DD
:100F9000340002252846BDE8F0810220FBE7022745
:100FA00084F8357060652046FFF7E4FC94F85C1027
:100FB0003F208840B0602068016841F01601016060
:100FC000206C20B12068016841F0080101602068B0
:100FD000016841F001010160DCE7000070B50446E2
:100FE00000F0DEF80546601C02D004480078044496
:100FF00000F0D6F8401BA042FAD370BD0C000020D0
:101000002DE9F84F00224FF0010803254FF00F0E95
:101010000B6808FA02F42340A34271D14E68012EF6
:1010200005D0022E03D0112E01D0122E15D18668C4
:10103000570005FA07FC26EA0C06D1F80CC00CFA9A
:1010400007FC4CEA060CC0F808C04668A6430C79B9
:10105000C4F30014944034434460C668570005FA52
:1010600007FC8C6826EA0C06BC403443C4604C681C
:10107000022C01D0122C13D1D40800EB8404A34617
:10108000D4F8209054074FEAD46A0EFA0AF629EAF7
:1010900006090E6906FA0AF646EA0906CBF8206048
:1010A00004680E7924EA0C0406F00306BE402643C9
:1010B00006604C68E40056D52E4C266846F48046FF
:1010C0002660246822F0030604F4804400942A4C2D
:1010D0003444A446D4F808489607370F0EFA07F6AA
:1010E000B443264EB04201D1002615E0244EB04252
:1010F00001D1012610E0234EB04202D102260BE0BE
:1011000031E0214EB04201D1032605E01F4EB0422E
:1011100001D1042600E00726BE402643CCF808682B
:101120001B4E34684F689C43FF0300D51C4334605A
:10113000174E361D34684F689C43BF0300D51C43CF
:101140003460134E083634684F689C43FF0200D564
:101150001C4334600E4E0C3634684F689C43BF020B
:1011600000D51C433460521C102AFFF451AFBDE877
:10117000F88F000044380240003001400000024077
:101180000004024000080240000C0240001002402F
:10119000003C01400AB1816170470904FBE700008F
:1011A00001488068704700000C00002002488168F8
:1011B00002781144816070470C0000200B4810B584
:1011C000016841F400710160016841F480610160CF
:1011D000016841F480710160032000F06FF8002085
:1011E00000F006F800F024F8002010BD003C02409A
:1011F00070B50D4D04464FF47A712878B1FBF0F0CC
:101200000A490968B1FBF0F000F026FC48B9102C3F
:1012100007D200222146501E00F030F800206C60FA
:1012200070BD012070BD00000C00002018000020DF
:101230000A4808B5016841F480410160006800F483
:10124000804000900548001F016841F08051016016
:10125000006800F08050009008BD00004438024053
:10126000002809DB00F01F020121914040098000A5
:1012700000F1E020C0F8001170470000F0B40E4B00
:101280001B680C46C3F30223C3F10705042D00D9E4
:101290000425191D072901D2002300E0DB1E0126C9
:1012A00006FA05F1491E214099409E40761E1640DF
:1012B0003143F0BC01F0FEBA0CED00E0064900F04D
:1012C000070208684FF6FF03184040EA0220034A6D
:1012D00010430860704700000CED00E00000FA05C4
:1012E0002DE9F0470E46050065D0DFF81481D8F8E7
:1012F0000000F7B200F00F00B04207D288F800708B
:10130000D8F8000000F00F00B04254D128683D4CDE
:10131000810712D5400703D5206840F4E0502060D3
:101320002878000703D5206840F4604020602068DA
:10133000A96820F0F000084320602878C0072DD06D
:10134000304968680839012812D0022813D00328D0
:1013500011D00968890700292DDA216821F00301DD
:1013600001432160FFF71CFF814641F2883A0EE0FD
:1013700009688903EFE709688901ECE7FFF710FFC7
:10138000A0EB0901514502D90320BDE8F087206890
:10139000696800F00C00B0EB810FEFD1D8F80010B5
:1013A000404601F00F01B14207D90770006800F014
:1013B0000F00B04201D00120E7E72878400705D5AB
:1013C0002068E96820F4E05008432060287800078E
:1013D00006D52068296920F4604040EAC1002060F9
:1013E00000F038F82168084AC1F30311515CC84085
:1013F0000649086006480068FFF7FAFE0020C4E7C7
:10140000003C024008380240584100081800002003
:10141000100000200448054900680968044AC1F327
:101420008221515CC84070471800002008380240F3
:10143000684100080448054900680968044AC1F386
:101440004231515CC8407047180000200838024003
:1014500068410008154810B5006810F00C021448E7
:1014600013D01449042A0FD0082A0ED10F4C241F80
:101470002268236802F03F025B0207D52068C0F3B0
:101480008810A0FB010106E0084610BD2168C1F3E9
:101490008811A1FB00010023FEF79AFE2168C1F329
:1014A0000141491C4900B0FBF1F010BD0838024071
:1014B0000024F40040787D012DE9F84F040076D037
:1014C0002078DFF838A3CE4DC00749D0DAF80010F5
:1014D0005046C1F38101012908D00068C0F38100A2
:1014E00002280AD1281D0068400206D5286880031A
:1014F00036D560680028E2D032E06068B0F5803F01
:1015000010D0B0F5A02F286810D020F480302860CB
:10151000286820F4802028606068A0B1FFF740FEB2
:1015200006460CE0286840F48030F4E740F4802060
:101530002860F7E7FFF734FE801B642873D828681B
:101540008003F7D50CE0FFF72BFE064605E000BF51
:10155000FFF726FE801B6428F0D828688003F7D4A4
:101560002078DFF8A08280074FF000093ED5DAF836
:101570000010504611F00C0F09D00068C0F3810034
:1015800002280BD19D48001F0068400206D428683D
:10159000800715D5E068012809D111E0E068B8B1ED
:1015A0000120C8F80000FFF7FBFD064605E020E13A
:1015B000FFF7F6FD801B0228C0D828688007F7D502
:1015C0002868216920F0F80040EAC10028600DE099
:1015D000C8F80090FFF7E4FD064604E0FFF7E0FDE1
:1015E000801B02281FD828688007F7D420780007BE
:1015F00022D5824E844861696C3671B10121016047
:10160000FFF7CEFD074604E0FFF7CAFDC01B022826
:1016100009D830688007F7D50EE0C0F80090FFF7D2
:10162000BFFD074605E082E0FFF7BAFDC01B0228B8
:101630007DD830688007F7D42078400768D5DFF878
:10164000BCB100270BF1380BDBF80000C0000BD455
:10165000DBF8001041F08051CBF80010DBF80000FF
:10166000012700F080500090684E3068C00510D40B
:10167000306840F480703060FFF792FD009005E024
:10168000FFF78EFD0099401A022850D83068C00537
:10169000F6D55A4EA068683601280FD00528306864
:1016A00010D020F001003060306820F0040030607D
:1016B000A068B8B1FFF774FD00900FE0306840F00B
:1016C0000100F4E740F004003060F7E7FFF768FD41
:1016D0000099411A41F28830814266D8306880070B
:1016E000F4D50EE0FFF75CFD009007E0FFF758FD32
:1016F0000099411A41F28830814256D830688007FB
:10170000F4D42FB1DBF8001021F08051CBF8001099
:10171000A069D0B3DAF800205146C2F38102022A50
:101720004AD00228484607D0C8F8600000E03CE0F4
:10173000FFF736FD04463BE04746C8F86000FFF778
:101740002FFD064605E000BFFFF72AFD801B02289B
:101750002BD828688001F7D4D4E907010843A16A8F
:101760002B4A490802EB0141626A41EA82110843AF
:1017700094F82C1040EA01612048001F016001200C
:101780003866FFF70DFD044605E034E0FFF708FD7D
:10179000001B022809D828688001F7D52BE000BF7C
:1017A000FFF7FEFC001B022802D90320BDE8F88FDA
:1017B00028688001F4D41EE00128F7D00868E269A7
:1017C00000F48001914214D1226A00F03F0191425D
:1017D0000FD147F6C071626A0140914209D1A26AF5
:1017E00000F44031914204D1E16A00F07060884217
:1017F00001D00120DAE70020D8E7000008380240D5
:101800000038024000004742800E4742007000400E
:101810000000FFFF70B5040005D00025A56294F814
:10182000510010B106E0012070BD84F850502046F0
:1018300000F030F8022084F851002068016821F09F
:1018400040010160D4E901010843D4E903121143C6
:10185000084361690843218B01F400710843E16981
:101860000843216A0843A16A084321680860A06907
:10187000042101EA1040616A084321684860206839
:10188000C16921F40061C1616565012084F85100DE
:10189000002070BD10B586B0044614216846FEF7DE
:1018A000CFFC13492068884220D1124800210268E9
:1018B00042F480520260006800F4805005900D48A8
:1018C0001438026842F001020260006800F0010072
:1018D0000590E02000900220CDE901010320039053
:1018E0000520049069460448FFF78AFB06B010BD46
:1018F0000030014044380240000002402DE9F84F1A
:10190000044690F8500000271D46164689460128D7
:101910000DD04FF0010B84F850B0FFF741FC80462A
:1019200094F85100BA46012804D002278EE0022024
:10193000BDE8F88FB9F1000F7DD0002E7BD00320D9
:1019400084F85100C4F854A0C4F83090A686E68606
:10195000C4F838A0A4F83CA0A4F83EA0C4F844A061
:10196000C4F840A0A068B0F5004F04D12068016819
:1019700041F48041016020680168490603D4016890
:1019800041F040010160E068B0F5006F606803D08D
:1019900030B3012E24D040E008B1012E1CD1206BC1
:1019A00021680088C86006E020688168890709D539
:1019B000216B0988C160206B801C2063E08E401E73
:1019C000E08609E0FFF7ECFBA0EB0800A84202D399
:1019D000681C01D031E07DB3E08E0028E4D11FE027
:1019E000206B21680078087306E020688168890709
:1019F00009D5216B09780173206B401C2063E08EB0
:101A0000401EE08609E0FFF7CBFBA0EB0800A842F0
:101A100002D3681C01D010E075B1E08E0028E4D13B
:101A200042462946204600F079FD08B12020606535
:101A3000A06820B107E008E0FFE7032706E0206880
:101A4000C16880680090606D00B1012784F851B0D2
:101A500084F850A038466BE710B5401EB0F1807F87
:101A600001D3012010BD4FF0E02460610F21601709
:101A700000F020FF0020A06107202061002010BDA1
:101A800070B590F83C20012A2CD0012480F83C400D
:101A9000022280F83D2003685A689D6822F0700693
:101AA0000A6832435A60104B02689A420ED0B2F173
:101AB000804F0BD00D4B9A4208D00D4B9A4205D067
:101AC0000C4B9A4202D00C4B9A4204D1496825F043
:101AD00080031943916080F83D40002180F83C105C
:101AE000084670BD022070BD0000014000040040A7
:101AF00000080040000C0040004001402DE9F0418A
:101B00000D46040003D094F83D0018B108E0012010
:101B1000BDE8F081002084F83C00204600F03AF84F
:101B2000022084F83D002068816844F20702914356
:101B30008160211D206800F0B9FD226890689169DC
:101B4000166A2B68AF69034340F20330814341EAD0
:101B50000721A868EF6908434FF6FC418843E9680C
:101B600040EA0720014328692F6A000140EA073054
:101B7000084369686D6926F0AA0646EA05152943F7
:101B800093602268906120680162012084F83D0022
:101B90000020BDE730B587B0044614216846FEF743
:101BA0004FFB2B4822680024294910380225B2F146
:101BB000804F31D0274B9A422CD10A6842F0020262
:101BC0000A60096801F002010591016841F0040111
:101BD0000160016801F004010591016841F0020112
:101BE00001600068694600F0020005904020009006
:101BF000CDE901541848CDE90345FFF701FA20204B
:101C00000090CDE9015415486946CDE9034500BF70
:101C1000FFF7F6F907B030BD0A6842F001020A602A
:101C2000096801F001010591016841F001010160BD
:101C30000068694600F00100059048F2020000903B
:101C4000CDE901540120CDE903400548E0E700005B
:101C500040380240000400400008024000040240F6
:101C60000000024010B50446006891B1042904D078
:101C70000122002100F066FD206801225FF00401CE
:101C800000F060FD2068016841F001010160002062
:101C900010BD01220021F3E770B5040004D094F8D0
:101CA0003900002510B106E0012070BD84F83850DD
:101CB000204600F023F8242084F839002068C16809
:101CC00021F40051C160204600F04AFD20680169FE
:101CD00021F4904101612068416921F02A014161AC
:101CE0002068C16841F40051C160E563202084F898
:101CF000390084F83A00002070BD000010B586B0AD
:101D0000044614216846FEF79BFA1349206888426E
:101D100020D11248016841F400310160006800F4EC
:101D2000003005900D481038016841F00101016054
:101D30000068694600F0010005900C200090022028
:101D40000190012002900320039007200490044892
:101D5000FFF756F906B010BD00440040403802407D
:101D600000000240FEE7F8B516460C460546F0288E
:101D700017D2B4F5A07F14D200F082F9601C83B2B0
:101D8000681C82B22146284600F082F9300A8DF89C
:101D900000008DF801600221684600F007FA00F0AB
:101DA000A3F9F8BD2DE9F8431D46DDF8208014465F
:101DB0000E460746F0283ED24FF4A0718E423AD22A
:101DC0003819401EF02802DBC7F1F00084B2701908
:101DD000401E884202DBC6F5A07085B200F050F9C3
:101DE0007019401E83B23819401E82B231463846FF
:101DF00000F04EF94FEA18208DF8000001228DF80E
:101E0000018051020D48FFF7C5F92E464FF0FF370C
:101E10000DE0254607E03B46022269460848FFF7E9
:101E20006DFD6D1EADB2002DF5D1761EB6B2002E41
:101E3000EFD100F059F9BDE8F8830000000002403E
:101E4000580D002008B5002100904FF4A073F02237
:101E50000846FFF7A7FF08BD1FB500F011F9704C49
:101E6000002280212046FFF795F90520FFF7B6F8FC
:101E7000012280212046FFF78DF9012000F082F930
:101E80004FF47A70FFF7AAF8CB2000F07BF965A138
:101E9000D1E90001CDE900010521684600F086F98D
:101EA000CF2000F06FF961A0032100680090684620
:101EB00000F07CF9E82000F065F95DA003210068DE
:101EC0000090684600F072F9EA2000F05BF9002407
:101ED00002216846009400F069F9ED2000F052F903
:101EE00054A0042100680090684600F05FF9F720D4
:101EF00000F048F950A0012100680090684600F009
:101F000055F9C02000F03EF94CA001210068009076
:101F1000684600F04BF9C12000F034F948A00121D7
:101F200000680090684600F041F9C52000F02AF9E9
:101F300044A0022100680090684600F037F9C720ED
:101F400000F020F940A0012100680090684600F0F0
:101F50002DF9362000F016F93CA001210068009010
:101F6000684600F023F93A2000F00CF938A001216E
:101F700000680090684600F019F9B12000F002F9FD
:101F800034A0022100680090684600F00FF9B620E6
:101F900000F0F8F830A0032100680090684600F0D7
:101FA00005F9F22000F0EEF801216846009400F0F7
:101FB000FDF8262000F0E6F828A001210068009036
:101FC000684600F0F3F8E02000F0DCF824A00FC829
:101FD0008DE80F000F21684600F0E8F8E12000F0DE
:101FE000D1F823A10FC98DE80F000F21684600F03A
:101FF000DDF8112000F0C6F87820FEF7EFFF292069
:1020000000F0C0F8362000F0BDF810A001210068F3
:102010000090684600F0CAF8BDE81F4000F064B8C0
:1020200000080240392C00340200000000C13000DA
:102030008500780064031281200000002300000066
:10204000100000003E28000086000000480000004C
:102050005500000000180000088227000100000061
:102060000F312B0C0E084EF1370710030E0900003C
:10207000000E1403110731C148080F0C31360F0050
:10208000002240210148FFF785B80000000402400B
:10209000F8B507461C4615460E462A2000F072F891
:1020A000380A8DF800008DF80170280A8DF80200BA
:1020B0008DF803500421684600F078F82B2000F0DA
:1020C00061F8300A8DF800008DF80160200A8DF863
:1020D00002008DF803400421684600F067F8BDE86F
:1020E000F8402C2000F04EB8012240210148FFF7B3
:1020F00051B80000000402400FB42DE9FF5FC3F3A4
:1021000007264A1E324494B2DFB2DDE913A9421E0B
:102110003A4492B22346FFF7BBFF00252CE010980B
:10212000203810FB06501299002409F0FF0B31F8FB
:1021300010804FEA1A2002900AF0FF0001904FEA47
:102140001920009015E000BF08FA04F0000406D53D
:1021500002988DF80C0001988DF80D0004E00098AD
:102160008DF80C008DF80DB0022103A800F01EF8C8
:10217000641CA742E8D86D1CAE42D0D8BDE8FF1F52
:102180005DF814FB01B500224FF400710548FFF71C
:1021900001F84FF0FF33012269460348FFF7AEFB19
:1021A00008BD000000000240580D00202DE9F0415C
:1021B0000C460646012251020C48FEF7EBFF4FF495
:1021C00000474FF0FF380DE0BC4201D9384600E02F
:1021D000204685B243462A4631460548FFF78EFB26
:1021E0002E44641B002CEFD1BDE8F08100000240BA
:1021F000580D00202DE9FE4F9846DDE90DA9144643
:102200000E460546DDF830B0FFF73AFF08F0FF074D
:1022100019E07819F0280AD3C8F3072081198EB283
:1022200000253044B0F5A07F10D2202A0AD0CDF886
:1022300000B0CDE901A9434631462846FFF75CFFCF
:10224000781985B2641C2278002AE2D1BDE8FE4FDD
:10225000FFF74ABF7FB500241A4800940194029406
:1022600017490394016001254FF440310561C0E92D
:102270000114057680F820401349C0E90A140226AB
:10228000C661C46080F830504461FEF73EFC08B17E
:10229000FEF785FBCDE9004569460A480295FEF741
:1022A0007FFB08B1FEF77BFB0420CDE90006694601
:1022B0000448FEF775FB002801D0FEF770FB7FBDD8
:1022C00000200140B00C00200100000F094808B5B3
:1022D000016841F4800101600068002200F4800080
:1022E000009001213820FEF7C9FFBDE808403820E2
:1022F000FEF7B6BF303802402DE9F04387B0142115
:102300006846FDF79DFF2B480024016841F001015C
:102310000160016801F001010591016841F00401CB
:102320000160016801F004010591016841F00201BA
:1023300001600068204F00F002000590002280211B
:102340003846FEF727FFDFF874804FF4C06600229E
:1023500031464046FEF71EFFDFF864900022402120
:102360004846FEF717FF802000900125CDE9015473
:10237000694638460394FEF743FE0096CDE90154C2
:10238000694640460394FEF73BFE1020CDE9000469
:10239000694648460294FEF733FE40200090CDE99E
:1023A0000154694648460394FEF72AFE07B0BDE88B
:1023B000F083000030380240000802400000024074
:1023C00000040240104810B50E4901604FF48271BC
:1023D000416000218160C1604FF400720161C0E979
:1023E00005122822C0E90721416281620A21C162E7
:1023F000FFF710FA002803D0BDE81040FEF7CFBA6F
:1024000010BD000000300140580D002010B58CB008
:1024100024216846FDF714FF0024154809944FF065
:1024200080410A94C0E900142821C0E902410461F6
:1024300084610120CDE90004CDE902040A21049160
:10244000CDE90540CDE9074169460948FFF756FB4C
:1024500008B1FEF7A4FA099409A905480A94FFF700
:102460000FFB002801D0FEF79AFA0CB010BD000057
:10247000B00D002010B58CB024216846FDF7E0FEB9
:1024800000241548099413490A94C0E90014102146
:10249000C0E90241046184610120CDE90004CDE975
:1024A00002040A210491CDE90540CDE907416946BE
:1024B0000948FFF723FB08B1FEF771FA099409A94F
:1024C00005480A94FFF7DCFA002801D0FEF767FA06
:1024D0000CB010BD00040040F00D00200C4810B5F9
:1024E0000A4901604FF4E1314160002181600C2212
:1024F000C160C0E904128161C161FFF7CDFB002812
:1025000003D0BDE81040FEF74ABA10BD00440040B9
:10251000300E0020FEE770477047000038B50446D3
:102520001248134B0068B0FBF3F04FF47A73584332
:1025300000906068B0F5827F0DD10B4600920022BA
:102540008021204600F016F870B1606D40F0200048
:102550006065032038BD009830B1401E00902068AF
:102560008068C0430006F6D5002038BD1800002062
:1025700000366E012DE9F0411D4617460E46044611
:10258000DDF8188008E0681C06D0FEF709FEA0EB15
:102590000800A8420BD255B12068806836EA0000D6
:1025A00030D00020B842EED10020BDE8F081206894
:1025B000416821F0E00141606068B0F5827F0BD195
:1025C000A068B0F5004F02D0B0F5806F04D120684C
:1025D000016821F040010160A06AB0F5005F09D1F7
:1025E0002068016821F4005101602068016841F40D
:1025F00000510160012084F85100002084F850004F
:102600000320D2E70120CDE77047FEF7CFBD0000E1
:1026100030B593B030216846FDF712FE14210CA8A6
:10262000FDF70EFE18480025016841F08051016059
:10263000006800F0805011901448016841F4404156
:1026400001600068022400F44040119001200390D2
:1026500010200490009406940820CDE907505420DF
:10266000CDE9090404200B906846FEF725FF0CA96C
:102670000F2081E83100E002CDE90F0502210CA80E
:10268000FEF72EFE13B030BD40380240007000400F
:102690000548016841F47001016003494FF0006092
:1026A000803908607047000088ED00E0F0B50268EE
:1026B0001D4B1E4C9F031E4D1E4E984207D0B84224
:1026C00005D0A04203D0A84201D0B04204D122F0EC
:1026D000700C4A6842EA0C02984210D0B8420ED000
:1026E000A0420CD0A8420AD0B04208D0124CA0425E
:1026F00005D0124CA04202D0114CA04203D122F4CA
:102700004074CA6822434C6922F08002224302606E
:102710008A68C2620A688262984201D109690163CB
:1027200001214161F0BD00000000014000040040B3
:1027300000080040000C00400040014000440140FF
:102740000048014010B501F01F030121046A9940BF
:102750008C430462016A9A401143016210BD00007B
:102760002DE9F041044600680169E26821F4405116
:10277000114301612169A068E2690843616911435D
:1027800008432168CA6849F20C639A430243CA604D
:1027900020684169A26921F4407111434161E069F7
:1027A000192764253226B0F5004F354A354920688F
:1027B0004FF0000806D0884201D0904236D1FEF793
:1027C00039FE35E0884201D0904202D1FEF732FE58
:1027D00001E0FEF71FFE61684A18A0FB070148EB05
:1027E0000803FDF7F5FC0146B0FBF5F00201B1FB73
:1027F000F5F06FF01803584301EB800006EBC000C2
:10280000B0FBF5F000F0F80002EB4002B1FBF5F090
:10281000584301EB800006EBC000B0FBF5F000F080
:102820000700216810448860BDE8F081FEF7F2FDE2
:1028300061688B0F8A00A0FB0701FDF7C9FC014608
:10284000B0FBF5F06FF01802504301EB800006EB8F
:102850000010B0FBF5F000F0F002B1FBF5F002EB78
:102860000012B1FBF5F06FF01803584301EB800044
:1028700006EB0010B0FBF5F000F00F00D1E7000010
:102880000014014000100140FEE700000FB4084BA7
:1028900010B504A902AA039800F0EEF8044602A9B4
:1028A000002000F080FC204610BC5DF814FB000006
:1028B000A73100080907090E002804DB00F1E02019
:1028C00080F80014704700F00F0000F1E02080F85D
:1028D000141D704702E008C8121F08C1002AFAD16F
:1028E00070477047002001E001C1121F002AFBD190
:1028F000704700002DE9FF5F82B00021DDE9043060
:10290000020DDDF840B0034318D044F61050A2F297
:10291000FF3242431514119801281FD0A5EB0B007C
:10292000401C5FEA000A4FF000064E4FDFF8389176
:10293000B046504615D5CAF1000413E011980124A1
:102940004AA3012801D16FEA0B010298119AC0E94C
:102950000031C0E9024206B0BDE8F09FCBF10000B3
:10296000DFE704460021404A491842EB0450CDE914
:10297000001012E0E00707D032463B464046494689
:10298000FDF745FD8046894632463B4610461946CE
:10299000FDF73DFD06460F466410002CEAD1DDE947
:1029A0000401DDE90023BAF1000F06DAFDF72FFD7F
:1029B00042464B46FDF72BFD05E0FDF79AFD4246EA
:1029C0004B46FDF796FD04460E460022284BFDF7C8
:1029D00017FE03D84FF0FF30014607E00022254BD9
:1029E00020463146FDF76CFCFDF7F2FD102409E0AE
:1029F000002C0ADB0A220023FDF7EAFB039B30329E
:102A00001A55641E50EA0102F2D1641C039AC4F103
:102A100011031444119A012A03D0012208430DD155
:102A20000AE0084304D000204FF0110B119072E728
:102A3000A3EB0B056D1E0DE05B4504DD4FF00002BE
:102A400005F1010504E003DA4FF00002A5F10105EC
:102A5000002AECD002981199C0E90231C0E9004582
:102A600079E70000000014400000F03F3000000053
:102A70000000F0430000E03F2DE9FF4F95B09B467A
:102A80008946064600250FE2252877D100242746EF
:102A9000F84A0121059400E0044316F8013F203B69
:102AA00001FA03F01042F7D130782A2811D06FF0E4
:102AB0002F033078A0F13002092A16D8059A44F085
:102AC000020402EB820203EB42021044761C0590E2
:102AD000EFE759F8042B0592002A03DA504244F438
:102AE0000054059044F00204761C30782E2816D14C
:102AF00016F8010F44F004042A280DD06FF02F02BD
:102B00003078A0F13003092B09D807EB870302EBDB
:102B10004303C718761CF3E759F8047B761C30781A
:102B20006C280FD006DC4C2817D068280DD06A28F6
:102B300014D104E0742810D07A280FD10DE044F4A9
:102B400000140AE044F4801401E044F44014727864
:102B5000824202D104F58014761C761C30786628F7
:102B60000BD013DC582877D009DC002875D0452815
:102B7000F6D04628F4D047281AD19DE118E0632802
:102B800035D0642879D0652812D195E1702873D0AA
:102B900008DC6728F1D069286FD06E280DD06F2827
:102BA00006D1B5E073282CD0752875D0782874D05C
:102BB0005A46179990476D1C75E1C4F302500228DC
:102BC00009D003280DD0D9F8001004280DD00D60CD
:102BD00009F1040967E1D9F80010EA17C1E90052C8
:102BE000F6E7D9F800100D80F2E70D70F0E719F85C
:102BF000041B8DF8001000208DF80100EA4601202A
:102C000003E059F804AB4FF0FF3061074FF00001CB
:102C100002D40DE008F101018846B9420FDA80457F
:102C2000F8DB1AF808100029F4D108E008F10101D6
:102C300088468142FADB1AF808100029F6D1059877
:102C40005B46A0EB080721463846179A00F094FA35
:102C5000284400EB080507E04DE029E10DE01AF8F3
:102C6000010B5A4617999047B8F10108F7D25B4615
:102C700021463846179A13E142E00A220092C4F333
:102C800002524FF0000A022A08D059F804CB032A56
:102C90004FEAEC710AD00DE029E02AE009F10701C2
:102CA00021F00702F2E802C1914609E00FFA8CFC1C
:102CB0004FEAEC71042A03D14FFA8CFC4FEAEC7115
:102CC000002907DA0A460021DCF1000C61EB020161
:102CD0002D2202E0220504D52B228DF804200122AA
:102CE00003E0E20701D02022F7E7904659E00A21ED
:102CF00002E010220DE010214FF0000A00910BE0DD
:102D000010224FF0000A44F004040827009203E068
:102D100008224FF0000A0092C4F30252022A05D0A2
:102D200059F804CB0021032A08D009E009F1070172
:102D300021F00702F2E802C1914605E01FFA8CFC7F
:102D4000042A01D10CF0FF0C4FF00008220728D50F
:102D5000702806D0009B83F0100353EA0A0305D0C5
:102D60000EE040228DF80420012208E05CEA010216
:102D700006D030228DF804208DF8050002229046FE
:102D8000009B83F0080353EA0A030AD15CEA0102BC
:102D900001D1620705D530228DF804204FF00108DB
:102DA0007F1E582804D034A003900EA802900DE096
:102DB00036A0F9E753466046009AFDF709FA8446C3
:102DC0000398825C0298401E029002705CEA010047
:102DD000F0D1029806A9081A00F1200A600702D56E
:102DE00024F4803400E00127574502DDA7EB0A00F8
:102DF00000E0002000EB0A01009005984144401AD1
:102E00000590E00306D45B462146179A059800F02A
:102E1000B3F90544002706E001A85A46C05D17999A
:102E200090476D1C7F1C4745F6DBE0030CD55B46E5
:102E30002146179A059800F09FF9054404E03020D8
:102E40005A46179990476D1C0099481E009000291A
:102E5000F5DC08E0029802995A460078491C029174
:102E6000179990476D1CBAF10001AAF1010AF1DC33
:102E700065E100000928010030313233343536373E
:102E800038396162636465660000000030313233B6
:102E90003435363738394142434445460000000056
:102EA00000F058F90544761C307800287FF4ECAD2A
:102EB00019B02846BDE8F08F620700D4062709F153
:102EC000070222F0070CFCE80223E14603F0004869
:102ED0005FEA080C02D00FF2702C0DE05FEA045C90
:102EE00002D50FF2682C07E05FEAC47C02D00FF233
:102EF000602C01E0AFF2700C4FF0FF3823F000437C
:102F0000CDF850C065280CD006DC452809D04628ED
:102F10001DD047283DD13DE0662818D067287ED1D6
:102F200038E00021112F01DB112000E0781CCDE9F1
:102F3000000106A90EA8FFF7DDFCDDE90F010E9ADE
:102F400003910021009207F1010A04914DE04FF036
:102F500000400097CDE9011006A90EA8FFF7CAFCB2
:102F6000DDE90F0203920E9B11990022DDF80CA0FF
:102F70000093049211B9791C00EB010AB7EB0A0027
:102F800004D4C0F1FF3007F1010A0490AAEB070056
:102F9000019044E0012F00DA01270021112F01DD0B
:102FA000112000E03846CDE9000106A90EA8FFF780
:102FB000A1FCDDE90F010E9A03910021049100921A
:102FC000BA4621070CD40399514500DA8A46BAF172
:102FD000010F05DD009AAAF10101515C302908D0EA
:102FE000B84202DA10F1040F06DA0121CDE901102E
:102FF00015E0AAF10101E9E7002805DC0499014484
:103000000491AAEB000102E0411C514500DD8A4613
:103010000499401A401C01904FF000400290200794
:1030200004D40198504501DBCDF8048000208DF8D0
:103030004F0002980DF14F07B0F1004F25D02B2023
:103040000E9002984FF0020800280CDA40420290DD
:103050002D200E9007E00A210298FDF7FCF8303190
:10306000029007F8011DB8F10001A8F10108F2DC97
:1030700002980028EFD1791E0E980870307800F081
:10308000200040F0450007F8020D12A8C01B00F117
:1030900007081498007800B1012000EB0A0101989C
:1030A00001EBE07105984144401A401E0590E00391
:1030B00006D45B462146179A059800F05DF8054452
:1030C0001498007818B15A46179990476D1CE00380
:1030D00024D55B462146179A059800F04DF8054423
:1030E0001CE00498002807DBDDE90301884203DDCA
:1030F0000098405C179901E0179930205A46904794
:10310000049805F10105401C04900198401E0190AF
:1031100004D12E205A46179990476D1CBAF1000130
:10312000AAF1010ADDDC05E017F8010B5A461799F0
:1031300090476D1CB8F10001A8F10108F4DC5B4672
:103140002146179A0598ABE62D0000002B000000E1
:10315000200000002DE9F041044600251E461746D8
:10316000880404D405E039462020B0476D1C641E55
:10317000F9D52846BDE8F0812DE9F0410446002547
:103180001E469046C80301D5302700E0202788045A
:1031900004D505E041463846B0476D1C641EF9D59C
:1031A0002846BDE8F0810A68531C0B601070704718
:1031B00010B5FEF799FFBDE81040FEF74DBE0000C8
:1031C0008EB0FDF7FBFFFFF723FAFFF795F8FFF747
:1031D000F9F8FFF71BF9FFF74DF9FFF77FF9FFF754
:1031E00075F8FFF737F83C215248FEF73BFD3C21CC
:1031F0005148FEF737FD0025FFF7DAFF00F0D4F85D
:103200004FF448724D494E48FDF7F6FC4D4E4FF4D1
:103210007849A8464FF6FF7B4FF080402F46406A22
:103220008508494800688408AF4201D1012000E0C8
:10323000002082462A4645A108A8FFF727FB44B193
:10324000012C08D0022C06D0032C06D0042C04D06C
:1032500007E042A102E045A100E048A103A8FFF772
:1032600015FBCDE901987068009008AA1E210A207C
:103270003368FEF7BFFFCDE901987068009003AA9C
:1032800032210A203368FEF7B5FF404C40A1454883
:1032900063882288FFF7FAFACDE9019870680090F8
:1032A0000A21404A08463368FEF7A4FF234840F647
:1032B00098020168914208D96B42EE2101EB430369
:1032C00021888B420ADD891C07E040F26C73994229
:1032D00004D22188012901D9891E218040689042A9
:1032E00009D968424FF49F7101EB40016088814227
:1032F0000ADD801C07E040F26C71884204D26088CD
:10330000512801D9801E6080BAF1000F08D1CDF894
:1033100000800BEA4702134661882088FEF742FDD1
:103320001F2000900BEA45031A4661882088FEF7AB
:1033300039FD71E7B00D0020F00D00201C000020C9
:10334000B00C0020000000202404004070656E5383
:10335000697A65203A20253032640000636F6C6F13
:1033600072203A20426C61636B000000636F6C6FE7
:1033700072203A202020526564000000636F6C6F59
:1033800072203A2057686974650000000800002028
:1033900078203A20253033642079203A20253033B4
:1033A000640000009C0C002070B50020FEF74AFD70
:1033B000002440F23F164FF6FF75A0B22A46502176
:1033C000FEF7D1FCA0B22A463146FEF7CCFC641CC5
:1033D000F02CF2DB5024A600A1B22A460020FEF712
:1033E000C2FCA1B22A46EF20FEF7BDFC641CB44229
:1033F000F2DB70BD000000000000000000000000D3
:1034000000000000000000000000000000000000BC
:1034100000000000000000000000000C000C000C88
:10342000000C000C000C000C000C000C000C000C3C
:103430000000000C000C0000000000000000001B59
:10344000001B001B001B001B000000000000000010
:10345000000000000000000000000000000000006C
:1034600000008019801980198019C07FC07F8019E1
:103470000033C07FC07F00330033003300330000CF
:10348000000000000000001E003F80758065007491
:10349000003C001E00078005806580658075003F48
:1034A000001E0004000400000000007000D840D896
:1034B000C0D880D900730006000C801BC036C066DF
:1034C000C046C00680030000000000000000001E8F
:1034D000003F003300330033001E000CC03CC066C8
:1034E000806380618063C03E801C0000000000009B
:1034F0000000000C000C000C000C000C0000000090
:1035000000000000000000000000000000000000BB
:103510000000000080000001000300060006000417
:10352000000C000C000C000C000C000C0004000649
:103530000006000300018000002000100018000CAD
:10354000000C000400060006000600060006000647
:103550000004000C000C0018001000200000000CFB
:10356000002D003F001E003300000000000000009E
:10357000000000000000000000000000000000004B
:10358000000000000000000C000C000C000CC0FF4C
:10359000C0FF000C000C000C000C0000000000003C
:1035A000000000000000000000000000000000001B
:1035B0000000000000000000000000000000000CFF
:1035C000000C0004000400080000000000000000DF
:1035D00000000000000000000000001E001E0000AF
:1035E00000000000000000000000000000000000DB
:1035F00000000000000000000000000000000000CB
:10360000000000000000000C000C000000000000A2
:103610000000000300030003000600060006000689
:10362000000C000C000C000C001800180018000022
:10363000000000000000001E003F00338061806138
:103640008061806D806D8061806180610033003FAA
:10365000001E00000000000000000006000E001E1A
:1036600000360026000600060006000600060006DA
:103670000006000600060000000000000000001E1A
:10368000003F807380618061800100030006000CB0
:10369000001800300060807F807F00000000000084
:1036A0000000001C003E006300630003000E000EDB
:1036B00000038001800180618073003F001E0000D4
:1036C0000000000000000006000E000E001E001E9C
:1036D0000016003600360066807F807F00060006F8
:1036E00000060000000000000000007F007F006076
:1036F00000600060006E007F806380018001806157
:103700008073003F001E0000000000000000001E4B
:10371000003F803380610060006E007F80738061B5
:10372000806180618033003F001E000000000000C7
:103730000000807F807F80010003000300060006F8
:10374000000C000C000C0008001800180018000005
:10375000000000000000001E003F80638061806167
:103760000021001E003F8061806180618061003F18
:10377000001E0000000000000000001E003F00735B
:103780008061806180618073803F801D80018061E5
:103790000073003F001E0000000000000000000059
:1037A000000000000000000C000C00000000000001
:1037B000000000000000000C000C000000000000F1
:1037C000000000000000000000000000000C000CE1
:1037D00000000000000000000000000C000C0004CD
:1037E00000040008000000000000000080008003CA
:1037F000000E003800600038000E800380000000DA
:1038000000000000000000000000000000000000B8
:103810000000807F807F00000000807F807F0000AC
:103820000000000000000000000000000000000098
:103830000000000000400070001C0007800100072D
:10384000001C0070004000000000000000000000AC
:103850000000001F803FC071C060C000C001800335
:103860000007000E000C000C0000000C000C000013
:10387000000000000000001E003F80318071806366
:10388000806F806D806D806F806700600032003EC9
:10389000001C0000000000000000000E000E001BD5
:1038A000001B001B001B80318031803F803F803136
:1038B000C060C060C0600000000000000000007C2C
:1038C000007E0063006300630063007E007E00638F
:1038D000806180618063007F007E00000000000046
:1038E0000000001E003F80318061006000600060C9
:1038F00000600060006080618031003F001E0000B9
:10390000000000000000007C007F00638063806195
:103910008061806180618061806100630063007EFE
:10392000007C0000000000000000807F807F0060BD
:10393000006000600060007F007F00600060006049
:103940000060807F807F0000000000000000807F1A
:10395000807F0060006000600060007F007F00608A
:103960000060006000600060006000000000000077
:103970000000001E003F8031806100600060006038
:1039800080638063806180618031803F001E000021
:1039900000000000000080618061806180618061C2
:1039A0008061807F807F80618061806180618061D3
:1039B00080610000000000000000003F003F000C9C
:1039C000000C000C000C000C000C000C000C000C97
:1039D000000C003F003F00000000000000008001DC
:1039E00080018001800180018001800180018001CF
:1039F000806180618073003F001E000000000000B5
:103A00000000C0608061006300660066006C0078A2
:103A1000007C00660066006380618061C060000019
:103A200000000000000000600060006000600060B6
:103A30000060006000600060006000600060807FE7
:103A4000807F0000000000000000C071C071C07BDA
:103A5000C07AC06AC06AC06EC064C060C060C06026
:103A6000C060C060C0600000000000000000807105
:103A70008071807980798079806D806D806D8065BE
:103A800080678067806780638063000000000000BB
:103A90000000001E003F0033806180618061806112
:103AA00080618061806180610033003F001E000002
:103AB000000000000000007E007F80638061806164
:103AC00080618063007F007E0060006000600060B5
:103AD00000600000000000000000001E003F0033F6
:103AE00080618061806180618061806180658067C4
:103AF0000033803F401E0000000000000000007EF8
:103B0000007F8063806180618063007F007E00664B
:103B10000063006380618061C060000000000000FD
:103B20000000000E001F8031803100300038001E80
:103B300000078003806180618031003F001E00002B
:103B4000000000000000C0FFC0FF000C000C000CD3
:103B5000000C000C000C000C000C000C000C000C05
:103B6000000C0000000000000000806180618061A6
:103B7000806180618061806180618061806180613D
:103B80008073003F001E0000000000000000C060C5
:103B9000C060C060803180318031001B001B001B81
:103BA000001B000E000E000E0004000000000000CC
:103BB0000000C0C0C0C0C0C0C0C0C0C0C0CC804C2D
:103BC000804C805E805280528073806180610000F2
:103BD000000000000000C0C0806080610033003B36
:103BE000001E000C000C001E001F003B8071806155
:103BF000C0C00000000000000000C0C08061806103
:103C000000330033001E001E000C000C000C000CE2
:103C1000000C000C000C0000000000000000803FC1
:103C2000803F8001000300030006000C000C001818
:103C3000001800300060807F807F000000000000DE
:103C4000000F000F000C000C000C000C000C000C0E
:103C5000000C000C000C000C000C000C000C000C04
:103C6000000F000F0000001800180018000C000CD6
:103C7000000C000C0006000600060006000300030E
:103C80000003000000000000001E001E00060006E9
:103C900000060006000600060006000600060006F4
:103CA0000006000600060006001E001E0000000CB4
:103CB000000C001E001200330033806180610000A0
:103CC00000000000000000000000000000000000F4
:103CD00000000000000000000000000000000000E4
:103CE00000000000000000000000000000000000D4
:103CF000E0FF0000000000380018000C0000000089
:103D000000000000000000000000000000000000B3
:103D100000000000000000000000000000000000A3
:103D20000000001F803F80618001801F803F806114
:103D30008063807FC0380000000000000000006049
:103D4000006000600060006E007F807380618061B1
:103D5000806180618073007F006E000000000000C1
:103D600000000000000000000000001E003F807303
:103D700080610060006080618073003F001E000071
:103D80000000000000008001800180018001801D92
:103D9000803F807380618061806180618073803F3B
:103DA000801D000000000000000000000000000076
:103DB0000000001E003F00738061807F807F0060F4
:103DC0008071003F001E0000000000000000C007DE
:103DD000C00F000C000C807F807F000C000C000CDA
:103DE000000C000C000C000C000C00000000000097
:103DF0000000000000000000801D803F8073806193
:103E00008061806180618073803F801D800180635C
:103E1000007F003E00000060006000600060006FF6
:103E2000807F80718061806180618061806180615C
:103E30008061000000000000000000060006000095
:103E40000000003E003E00060006000600060006D8
:103E50000006000600060000000000000006000644
:103E600000000000003E003E0006000600060006BE
:103E7000000600060006000600060046007E003C24
:103E80000000006000600060006080610063006608
:103E9000006C007C0076006300638061C0600000FD
:103EA000000000000000003E003E00060006000684
:103EB00000060006000600060006000600060006D2
:103EC00000060000000000000000000000000000EC
:103ED000000080DDC0FFC0CEC0CCC0CCC0CCC0CC08
:103EE000C0CCC0CCC0CC000000000000000000002E
:103EF000000000000000006F807F807180618061A1
:103F0000806180618061806180610000000000004C
:103F100000000000000000000000001E003F807351
:103F200080618061806180618073003F001E0000BD
:103F3000000000000000000000000000006E007F94
:103F4000807380618061806180618073007F006E1A
:103F500000600060006000600000000000000000E1
:103F6000801D803F8073806180618061806180738B
:103F7000803F801D800180018001800100000000E1
:103F80000000000000000067803F00390030003072
:103F90000030003000300030003000000000000031
:103FA00000000000000000000000001E803F806153
:103FB0000060007F803F80018061007F001E000064
:103FC0000000000000000000000800180018007F3A
:103FD000007F001800180018001800180018801F33
:103FE000800F000000000000000000000000000042
:103FF000000080618061806180618061806180619A
:104000008063807F803D0000000000000000000011
:10401000000000000000C060803180318031001B52
:10402000001B001B000E000E000600000000000038
:104030000000000000000000000080DD80DD80DD69
:10404000005500550055007700770022002200003F
:10405000000000000000000000000000000080617F
:1040600000330033001E000C000C001E0033003330
:10407000806100000000000000000000000000005F
:1040800080618061803100330033001B001B001B06
:10409000000E000E000E001C007C007000000000EE
:1040A000000000000000C07FC07F80010003000608
:1040B000000C00180030C07FC07F0000000000002E
:1040C0008003800700060006000600060006000EBA
:1040D000001C001C000E000600060006000600067C
:1040E00080078003000600060006000600060006A2
:1040F0000006000600060006000600060006000690
:1041000000060006000600060038003C000C000C0B
:10411000000C000C000C000E00070007000E000C45
:10412000000C000C000C000C003C003800000000EB
:10413000000000000000000000008038807F004781
:10414000000000000000000000000000000000006F
:104150000006101600061016000000000000000007
:10416000010203040607080900000000010203041D
:1041700090410008000000201C000000D428000826
:10418000AC4100081C00002054120000E428000884
:104190000B120000F4330008010051000100000080
:0C41A00010000000000000000024F400EB
:040000050800019955
:00000001FF
